:020000040000FA
:06000000BCEF0BF0120042
:020006000000F8
:06000800B2EF07F0120048
:02000E0043ECC1
:1000100005F0FB0EDBCFF3FFDB06F35000090AE02F
:1000200091EC05F0FA0EFCEC05F0F3E1151CF1E1A2
:10003000010E01D0000E72EF05F043EC05F03B0E0F
:10004000E12402E3E168E652E16E010EDB6A020E92
:10005000DB6AF90EDBCFF6FFFA0EDBCFF7FFFB0E04
:10006000DBCFF8FF0800F550DF6EDF5002E196EFBE
:1000700004F0250EDF5C02E089EF04F0030EDB6A7A
:10008000040EDB6A050EDB6A060EDB6A070EDB6A0E
:10009000ABEC04F02D0EDF5C0CE02B0EDF5C09E016
:1000A000200EDF5C06E0230EDF5C03E0300EDF5C39
:1000B0001AE1DF50300A14E0130A0FE0030A0AE0E5
:1000C0000B0A05E0060AE4E1030EDB80E1D7030E2C
:1000D000DB82DED7030EDB84DBD7030EDB86D8D7CB
:1000E000030EDB88D5D72A0EDF5C1BE1A7EC04F0FA
:1000F000F5EC04F010E0030EDB8006680768130ED1
:10010000DBCF0DF0140EDBCF0EF0C5EC09F0040EC2
:1001100004C0DBFF03D0130EDEEC04F0ABEC04F004
:100120000BD0090EDB6A4CEC05F003E0C0EC05F0E7
:10013000FAD7090EDEEC04F0030EDBB0DB982E0ECE
:10014000DF5C1BE1ABEC04F02A0EDF5C0BE1A7ECFB
:1001500004F0F5EC04F003E1130E30EC05F0ABEC29
:1001600004F00BD0090EDB6A4CEC05F003E0C0ECA8
:1001700005F0FAD7090E30EC05F0680EDF5C07E1F8
:10018000ABEC04F0680EDF5C1DE1030E18D0740EBA
:10019000DF5C17E07A0EDF5C14E0480EDF5C06E0FF
:1001A000540EDF5C03E05A0EDF5C02E1020E07D062
:1001B0006C0EDF5C03E06A0EDF5C04E1010E83EC91
:1001C00005F0C9DBDF506E0A01E17FD31E0A01E1B1
:1001D00092D1200A01E18FD13F0A01E149D11A0AE7
:1001E00001E146D10D0A01E143D1200A01E140D1EC
:1001F0003A0A01E13DD1200A01E13AD1260A01E1A2
:1002000035D10D0A01E132D11A0A01E1D9D0200A13
:100210004AE0300A1FE0460A0EE0250A01E083D3D7
:10022000D950F90FE96EFF0EDA20EA6E010EEE5E8C
:10023000000EEE5AEE5A91EC05F0250EE66E95DBB7
:1002400003E1151C01E169D38DEC05F001E26BD3EC
:10025000DB2A69D3080EDB6A040EDB50010806E2D4
:10026000040EDB0455EC05F0DB508BDB080EDB5095
:1002700009E0030EDB50010B05E172DB01E04DD319
:10028000080EDB6A64DBEFCFDFFF05EC06F003E16D
:10029000151C01E142D38DEC05F001E3DB2A60DBA4
:1002A00001E141D33AD3070EDB5002080FE1D1EC54
:1002B00005F0030E98EC05F00E0EEECFDBFF0F0EEF
:1002C000EECFDBFF100EEECFDBFF20D0F70EDBCF43
:1002D00017F0F80EDBCF18F0020E175E000E185A5A
:1002E000F70E17C0DBFFF80E18C0DBFF17C0E9FFE1
:1002F00018C0EAFF88EC05F0166A0E0E14C0DBFF8A
:100300000F0E15C0DBFF100E16C0DBFF0E0EDBCF8D
:10031000E6FF0F0EDBCFE6FF100EDBCFE6FFA0EC13
:1003200009F0E552E552E552130E05C0DBFF140E4D
:1003300006C0DBFF060EDB5005E0130ECCEC05F02B
:1003400001E26ADBF0EC05F002E2130E37DBB3ECFE
:1003500005F006E0040ECCEC05F002E2050E2EDB03
:10036000030EDBB005D0FCDA01E0D7D2080EDB6A61
:10037000090EDB6A0E0EDBCFF6FF0F0EDBCFF7FFA9
:10038000100EDBCFF8FF0800F550DF6EDF5014E0F1
:10039000F6EC05F011E205EC06F003E1151C01E1B5
:1003A000BCD2BBDB01E3DB2A090EDB2AD9500E0FDE
:1003B000E96E000ECBDBE7D7D3DA01E1B4D2ADD2E0
:1003C000C6DA110EEECFDBFF120EEDCFDBFF110E02
:1003D000DBCFE6FF120EDBCFE6FF92EC09F0E55231
:1003E000E552130EF3CFDBFF140EF4CFDBFF060E46
:1003F000DB5004E0130ED0DB01E20EDBF0EC05F085
:1004000002E2130EDBDAAFDB05E0040EC5DB02E22D
:10041000050ED4DA030EDBB005D0A2DA01E07DD2FE
:10042000080EDB6A090EDB6A110EDBCFE9FF120E44
:10043000DBCFEAFFEFCFDFFFDF5014E0D7DB12E2C4
:10044000E4DB03E1151C01E168D267DB01E3DB2A91
:10045000090EDB2A110EDB2ADBCFE9FF120EE8E3DF
:10046000DB2AE6D77DDA01E15ED257D2030EDB8EBE
:10047000070EDB0410E195DB040E5ADB0A0EEECF0B
:10048000DBFF0B0EEECFDBFF0C0EEECFDBFF0D0E16
:10049000EECFDBFF6CD0070EDB5003082CE1030E20
:1004A000DBAE0DD0B2DA020E76DAEFCF14F0156AB9
:1004B000166A176A14AE39D01568166835D0F70E6B
:1004C000DBCF15F0F80EDBCF16F0020E155E000E36
:1004D000165AF70E15C0DBFFF80E16C0DBFF15C06D
:1004E000E9FF16C0EAFFEFCF14F00A0E14C0DBFFDD
:1004F0000B0EDB6A38D0070EDB50020809E1030E51
:10050000DBAE04D059DB16AE10D00ED055DB0DD0CB
:10051000030EDBAE12D079DA020E3DDAF9DA166A92
:10052000176A15AE02D016681768E2DA0C0E16C00C
:10053000DBFF0D0E17C0DBFF1AD0F70EDBCF16F076
:10054000F80EDBCF17F0020E165E000E175AF70EEC
:1005500016C0DBFFF80E17C0DBFF16C0E9FF17C09F
:10056000EAFFD6DAC5DA0C0EDB6A0D0EDB6A060E80
:10057000DB5005E1010EF36E050EF3CFDBFF150E28
:10058000DB6A160EDB6AD950370F146E000EDA20C4
:10059000156E390E14C0DBFF3A0E15C0DBFF380EA6
:1005A000DB6A080EDB6A0A0EAEDADF50780A12E068
:1005B000200A10E0280A0CE0200A0AE03F0A06E0C0
:1005C0000D0A02E0200A08E1020E05D0080E03D051
:1005D000080EDF26100E97DA030EDBBE02D0DB9288
:1005E000DB94DB50800B24E08ADAD890030EEB50CA
:1005F000000A08E6000EEE5C000EEE58000EEE5803
:10060000000EEE5815E213DA0B680C680D680E68E0
:100610005AEC09F00A0E00C0DBFF0B0E01C0DBFF35
:100620000C0E02C0DBFF0D0E03C0DBFF2D0E08D049
:10063000030EDBA202D02B0E03D0DBA408D0200EC9
:10064000F36E170EF3CFDBFF150EDB2A02D0170E69
:10065000DB6A050EDB5003E1B7D901E189D0C60E94
:10066000146E170E156E000E166E070EDBCF17F008
:10067000186A196A1A6A17C00BF018C00CF019C072
:100680000DF01AC00EF0D3D9D8EC0AF014500024A3
:10069000F36E15500120F46E16500220F86EF4CF60
:1006A000F7FFF3CFF6FF0800090EF5CFDBFF580E7A
:1006B000DF5C0FE1610EF36E090E7BD90AE3200EB9
:1006C000146E090EDBCFE7FF1450E75E090EE7CF8B
:1006D000DBFF070EDBCF14F0156A166A176A0FDA14
:1006E00014C00BF015C00CF016C00DF017C00EF0C2
:1006F000EECF04F0EECF05F0EECF06F0EFCF07F02F
:10070000D8EC0AF007C0EDFF06C0EDFF05C0EDFF15
:1007100004C0EFFF390EDBCFE9FFDB063A0EDBCF7B
:10072000EAFF01E2DB06090EDBCFEFFF150EDB2A45
:100730004BD995E1030EDBA61DD06F0EDF5C06E101
:10074000C1D918E3150EDB285BDA14D0780EDF5C14
:1007500009E0580EDF5C06E0620EDF5C03E0420E4B
:10076000DF5C08E1020EF36E160EF3CFDBFF02D062
:10077000150EDB6A030EDB50100B0EE0040EDBCF10
:1007800014F0050EDB50D880145406E2060EDB5040
:1007900003E1040EDB5034DA95D90AE2050EDBCF13
:1007A000E7FF150EDB50E75E050EE7CFDBFF02D05B
:1007B000050EDB6A040EDBCF14F0160E45D9D88087
:1007C000145414E2160EDBCFE6FF150EDBCFE6FF66
:1007D000040EDBCFE6FF050EDB50E552E75CE55289
:1007E000D880E754E552D880E7545FD9030EDB5038
:1007F000010B0BE1080EDB5008E0B2D801E08DD010
:10080000080EDB50BED8080EDB6A170EDB5007E07F
:1008100088D9170EF1D903E1151C01E17ED0160E1F
:10082000DB5016E07ED9300EE66E9FD802E1151C33
:1008300074E077D9DFCFE6FF18EC09F0E552E55216
:10084000E552F4CF15F00001F31C02E1151C65E040
:10085000050EDBCF14F0160EDB50D880145409E2DD
:10086000050EDBCFE7FF160EDB50E75E050EE7CF88
:10087000DBFF300EE66E050ECBD94FE1390EDB2AD9
:10088000DBCFE9FF3A0E01E3DB2ADBCFEAFF090EFB
:10089000EFCFDBFFDB500EE044D9090EADD902E10A
:1008A000151C3BE0390EDB2ADBCFE9FF3A0EEDE306
:1008B000DB2AEBD755D831E1160EDBCFE6FF080E69
:1008C000C3D8E552E7245DD82ED0070EDB50030ACB
:1008D0001CE0010A14E0030A07E07BD9DBCFEEFF3E
:1008E000020EDBCFEDFF1FD0F5D8196A17AE02D08C
:1008F000186819682CD8BCD819C0EEFF14D0EAD8F3
:1009000017BE186824D8B4D80ED063D9DBCFEFFF58
:100910000AD07BD905E1151C03E1F368F46810D017
:10092000FCD801E3DB2A79D932EF00F0010EDBCFEE
:1009300014F0020EDBCF15F014C0F3FF15C0F4FF66
:100940003B0EE15C02E2E16AE552E16ECBD029D9CF
:10095000020E98EF05F061D90800F550DF6E120025
:10096000200EE66E080E08EF06F018EC09F0E552CE
:10097000E552E552F3CF14F0F4CF15F00001F31C6B
:100980001200146E156AD950010F4DD91450EE267D
:100990001550ED221200185E000E195AF70E18C0FD
:1009A000DBFFF80E19C0DBFF18C0E9FF19C0EAFF32
:1009B0001200DBCFF4FFF350F45C1200DB50E76E63
:1009C000040EE7CFDBFF12000A0EDBCF14F00B0E94
:1009D000DBCF15F00C0EDBCF16F00D0EDBCF17F0D2
:1009E00014501510161017101200130EEECFDBFF67
:1009F000140EEDCFDBFF130EDBCF14F0140EDBCFA4
:100A000015F00001800E15141200F70EDBCF18F060
:100A1000F80EDBCF19F01200050EDB50E66ED95050
:100A2000130F01D9E552E750EE6EED6A12000A0E7F
:100A3000DBCF04F00B0EDBCF05F00C0EDBCF06F0A6
:100A40000D0EDBCF07F01200DBCFE6FF150EDBCF7C
:100A5000E6FF050EDB50E552E724E552E7241200DD
:100A6000DB50CED8010EF36E060EF3CFDBFF120083
:100A7000EE50EFCFEAFFE96E16C0EEFF17C0EEFFB3
:100A800018C0EEFF1200D9CFE6FFDACFE6FFE1CFC4
:100A9000D9FFE2CFDAFF1200DFCFE6FFE66A8AEC89
:100AA0000BF0E552E552F3501200E76E080EE7CF67
:100AB000DBFF1200EECF14F0EECF15F0EFCF16F003
:100AC000176A1200050EDBCF14F0150EDB50D8802C
:100AD00014541200010EDBCF16F0020EDBCF17F01C
:100AE000186A1200E552E5CFDAFFE7CFD9FF12000E
:100AF0000A0E14C0DBFF0B0E15C0DBFF1200D9502D
:100B00000A0F13EF06F0F36E070EF3CFDBFF1200B0
:100B1000EECF14F0EFCF15F01200010EDB2A020E1B
:100B20001200FC0EDBCFE6FFFD0EDBCFE6FF12006E
:100B3000145E000E155AF70E14C0DBFFF80E15C038
:100B4000DBFF14C0E9FF15C0EAFF1200DA20EA6EED
:100B5000EF2AEECFF6FF000EEF22EECFF7FFEF22E7
:100B6000EECFF8FF1200040EDBCFE6FF130EDB50D2
:100B7000E552E75C9ADFDB5004DF060EDB50120023
:100B8000090EDB500A0DF350DF24D00FE76E090E7B
:100B9000E7CFDBFFABEF04F0DB50F36E050ED9EFD0
:100BA00004F0F70EDBCF14F0F80EDBCF15F01200D7
:100BB000DFCFE6FFB5EF04F028DF030EECDE5AEFDF
:100BC00005F007EC00F0E552E552E552E552000968
:100BD0001200BDDEEE50EFCFEAFFE96E010E12000B
:100BE000130EDB50F36E040ED9EF04F0040EDB504D
:100BF000F36E090ED9EF04F0DBCFE6FFB5EF04F09A
:100C0000E76E050EE7CFDBFF12008BDFD8EF05F0B4
:100C1000DBCFE6FF86DFE1EF05F0D950F90FE96E93
:100C2000FF0EA6EF05F0E96E000EDA20EA6E120064
:100C300000000000000000000000000000000000B4
:100C4000010EE66ED8EC0BF0E5521200050EE66ED2
:100C50009CEC0BF0E55212000F0EE66E9CEC0BF0D4
:100C6000E5521200836A956A280EE66E0CEC08F0D5
:100C7000E55240EC0BF00009FCE1E66AF2EC09F009
:100C8000E552060EE66E8DEC0AF0E55240EC0BF0F4
:100C90000009FCE10F0EE66E8DEC0AF0E55240EC27
:100CA0000BF00009FCE11200D9CFE6FFE1CFD9FF3C
:100CB0002A0EE126DE6ADD6A8250800B01E0010E19
:100CC000E76EDFCF14F0010EDBCF15F0E750141202
:100CD00014C0DEFF15C0DDFFDECF14F0DDCF15F050
:100CE000D8901436153614C0DEFF15C0DDFF8250D3
:100CF000400B01E0010EE76E000EDFCF14F0010E95
:100D0000DBCF15F0E750141214C0DEFF15C0DDFF75
:100D1000DECF14F0DDCF15F0D8901436153614C0A0
:100D2000DEFF15C0DDFF8250200B01E0010EE76EF3
:100D3000000EDFCF14F0010EDBCF15F0E7501412D8
:100D400014C0DEFF15C0DDFFDECF14F0DDCF15F0DF
:100D5000D8901436153614C0DEFF15C0DDFF825062
:100D6000100B01E0010EE76E000EDFCF14F0010E54
:100D7000DBCF15F0E750141214C0DEFF15C0DDFF05
:100D8000000EDFCF06F0010EDBCF07F00F0E0618C6
:100D900001E1075001E187D00E0E061801E107506E
:100DA00001E17DD00D0E061801E1075074E00C0E34
:100DB000061801E107506BE00B0E061801E1075021
:100DC00062E00A0E061801E1075059E0090E061804
:100DD00001E1075050E0080E061801E1075047E016
:100DE000070E061801E107503EE0060E061801E165
:100DF000075035E0050E061801E107502CE0040EFF
:100E0000061801E1075023E0030E061801E1075020
:100E10001AE0020E061801E1075011E0010E061853
:100E200001E1075008E0065054E1075052E1E40E9A
:100E3000146E160E3BD0E20E146E160E37D0E00E76
:100E4000146E160E33D0DE0E146E160E2FD0DC0E7E
:100E5000146E160E2BD0DA0E146E160E27D0D80E86
:100E6000146E160E23D0D60E146E160E1FD0D40E8E
:100E7000146E160E1BD0D20E146E160E17D0D00E96
:100E8000146E160E13D0CE0E146E160E0FD0CC0E9E
:100E9000146E160E0BD0CA0E146E160E07D0C80EA6
:100EA000146E160E03D0C60E146E160E156E166A4C
:100EB00014C0E6FFE66E16C0E6FFD950020FE66EDC
:100EC000000EDA20E66E73EC08F0176E050EE15E98
:100ED000175040EC0BF00009FCE1E66AF2EC09F077
:100EE000E55240EC0BF00009FCE16E0EE66E9CEC66
:100EF0000BF0E55240EC0BF00009FCE1D950020F79
:100F0000E66E000EDA20E66EB60E146E160E156E44
:100F1000166A14C0E6FFE66E16C0E6FFD950160F3B
:100F2000E66E000EDA20E66E73EC08F0176E070E20
:100F3000E15E1750D950160FE66E000EDA20E66E0D
:100F4000B3EC0AF0E552E55240EC0BF00009FCE18D
:100F50002A0EE15C02E2E16AE552E16EE552E7CF7A
:100F6000D9FF1200DACFE4FFE2CFDAFFE9CFE4FFE6
:100F7000EACFE4FFF6CFE4FFF7CFE4FFF5CFE4FFDD
:100F8000F3CFE4FFF4CFE4FFFACFE4FF00EE00F08C
:100F9000140EE80403E3EECFE4FFFBD700EE14F0F9
:100FA000070EE80403E3EECFE4FFFBD7E652F29E20
:100FB000F2A203D079DEF298F292F288F28EE55234
:100FC00000EE1AF0070EE80403E3E5CFEDFFFBD7D0
:100FD00000EE13F0140EE80403E3E5CFEDFFFBD7BA
:100FE000E5CFFAFFE5CFF4FFE5CFF3FFE5CFF5FF5F
:100FF000E5CFF7FFE5CFF6FFE5CFEAFFE5CFE9FF65
:10100000E5CFDAFF1100948E948C948A9488F28E46
:08101000F288F19C27DEFFD7F6
:08101800D9CFE6FFE1CFD9FFBB
:101020000F0E831695169594959295908C948C92AC
:101030008C902CEC06F0300EE66E8DEC0AF0E5524A
:10104000050EE66E73EC0BF0E552300EE66E8DEC9D
:101050000AF0E552010EE66E73EC0BF0E552320E2B
:10106000E66E8DEC0AF0E55240EC0BF00009FCE175
:1010700040EC0BF00009FCE1FE0EDBCFE6FF8DEC4F
:101080000AF0E55240EC0BF00009FCE1080EE66EB8
:101090008DEC0AF0E55240EC0BF00009FCE10F0E7C
:1010A000E66E8DEC0AF0E55240EC0BF00009FCE135
:1010B000010EE66E8DEC0AF0E55240EC0BF00009F3
:1010C000FCE1040EE66E8DEC0AF0E55240EC0BF00C
:1010D0000009FCE1800EE66EF2EC09F0E552E55203
:0610E000E7CFD9FF12006A
:0A10E600D9CFE6FFDACFE6FFE1CF35
:1010F000D9FFE2CFDAFFE652E652E652E652D95085
:10110000F90F146EFF0EDA20156E020E14C0DBFF0D
:10111000030E15C0DBFF020EDBCFE6FF030EDBCFB5
:10112000E6FFF90EDBCFE6FFFA0EDBCFE6FFFB0EA4
:10113000DBCFE6FFD950FC0FE66EFF0EDA20E66E3D
:101140001DEC00F0146E070EE15C02E2E16AE5526C
:10115000E16E1450F3CFDEFFF4CFDDFFFC0EDBCFEA
:10116000E9FFFD0EDBCFEAFFEF6ADECF14F0DDCF43
:1011700015F014C0F3FF15C0F4FF040EE15C02E2A9
:10118000E16AE552E16EE552E5CFDAFFE7CFD9FF3C
:0211900012004B
:0E119200060EF66E000EF76E000EF86E0001EF
:1011A0000900F550856F0900F550866F03E18567EA
:1011B00001D03DD00900F550806F0900F550816FD6
:1011C0000900F550826F09000900F550E96E090029
:1011D000F550EA6E090009000900F550836F090017
:1011E000F550846F09000900F6CF87F0F7CF88F03B
:1011F000F8CF89F080C0F6FF81C0F7FF82C0F8FF0A
:101200000001835302E1845307E00900F550EE6EBC
:101210008307F8E28407F9D787C0F6FF88C0F7FF95
:1012200089C0F8FF00018507000E865BBFD712005A
:10123000D9CFE6FFDACFE6FFE1CFD9FFE2CFDAFF81
:10124000FB0EDBCF14F0FC0EDBCF15F00001800E9F
:1012500015141AE1FB0EDBCFE9FFFC0EDBCFEAFF32
:10126000EECFF3FFEDCFF4FFEE2A000EEF22F3CF27
:10127000E9FFF4CFEAFFFD0EDBCFEFFFEF50156A79
:10128000F36E15C0F4FF10D0FB0EDB50FE0806E134
:10129000FD0EDBCFE6FFCAEC0BF005D0FD0EDBCF79
:1012A000E6FFECEC0BF0E552E552E5CFDAFFE7CFD5
:0412B000D9FF120050
:0C12B40004500B02F3CF00F0F4CF01F067
:1012C0000C02F3500126000EF420026E04500D02B1
:1012D000F3500226000EF420036E04500E02F35069
:1012E000032605500B02F3500126F4500222000E93
:1012F000032205500C02F3500226F450032205503D
:101300000D02F350032606500B02F3500226F45050
:10131000032206500C02F350032607500B02F35031
:04132000032612008E
:0C132400FE0EE3CFE9FFFF0EE3CFEAFF6F
:10133000F36AF46AEE5203E0F34AF42AFBD7120090
:10134000FF0EE3CFF8FFE552FF0EE3CFF7FFE552C4
:10135000FF0EE3CFF6FFE552E66AE66AE66A0900A9
:10136000F55209E0FD0EE32A05E1FE0EE32A02E153
:10137000FF0EE32AF4D7FD0EE3CF05F0FE0EE3CF18
:0A13800006F0FF0EE3CF07F01200A5
:06138A0007C013F006C0CD
:1013900012F006500D02F4CF05F0F3CF04F0075021
:1013A0000E02F4CF07F0F3CF06F00D02F35005263E
:1013B000F4500622E86A072212500E02F350052666
:1013C000F4500622E86A07220EAEEBEF09F0125045
:1013D000065E1350075A13AE000C0D50065E0E50F9
:0413E000075A000C9C
:0C13E400D9CFE6FFE1CFD9FF0F0E951620
:1013F0008316FE0EDB508009F00B83128C948C92C6
:1014000018EC06F08C8018EC06F08C900F0E83160A
:10141000FE0EDB38F00BF00B831218EC06F08C801C
:1014200018EC06F08C90F00E9512E552E7CFD9FF3C
:021430001200A8
:0E143200D9CFE6FFE1CFD9FF0F0E9516831636
:10144000FE0EDB504009F00B83128C948C9218EC4A
:1014500006F08C8018EC06F08C900F0E8316FE0EB2
:10146000DB38F00BF00B831218EC06F08C8018ECD4
:1014700006F08C90F00E9512E552E7CFD9FF1200DE
:10148000D9CFE6FFE1CFD9FFFD0EDBCFF6FFFE0E91
:10149000DBCFF7FF0800F55016E040EC0BF0000939
:1014A000FCE1FD0EDBCFF6FFFE0EDBCFF7FF080001
:1014B000F550E66E67EC0AF0E552FD0EDB2AFE0EF3
:0E14C000E3E3DB2AE1D7E552E7CFD9FF1200C4
:0214CE00D9CF74
:1014D000E6FFE1CFD9FF0F0E95168316FE0EDB5007
:1014E000F00B83128C828C9418EC06F08C8018EC34
:1014F00006F08C900F0E8316FE0EDB38F00BF00B0F
:10150000831218EC06F08C8018EC06F08C90F00E2C
:0A1510009512E552E7CFD9FF120053
:06151A00D9CFE6FFE1CF8E
:10152000D9FF0F0E95168316FE0EDB50F00B8312BB
:101530008C948C9218EC06F08C8018EC06F08C9051
:101540000F0E8316FE0EDB38F00BF00B831218EC37
:1015500006F08C8018EC06F08C90F00E9512E55297
:06156000E7CFD9FF1200E5
:0A156600D9CFE6FFE1CFD9FFFD0E5B
:10157000DBCFE9FFFE0EDBCFEAFFEF5015E040ECDA
:101580000BF00009FCE1FD0EDBCFE9FFFE0EDBCF27
:10159000EAFFEF50E66E67EC0AF0E552FD0EDB2A3B
:1015A000FE0EE5E3DB2AE3D7E552E7CFD9FF1200D1
:1015B000036A026A016A006A200EE76ED890043658
:1015C00005360636073600360136023603360B502E
:1015D000005C0C5001580D5002580E50035809E39E
:1015E0000B50005E0C50015A0D50025A0E50035A17
:0815F000042AE72EE4D71200E3
:0815F800D9CFE6FFE1CFD9FFD6
:10160000E6528C848C8218EC06F08C8018EC06F084
:10161000F00E8314DF6E8C9018EC06F08C8018ECC2
:1016200006F083380F0B0F0BDF128C908C928C948A
:0C163000DF50E552E552E7CFD9FF120071
:04163C00D9CFE6FF1D
:10164000E1CFD9FFE6528C848C9218EC06F08C80A6
:1016500018EC06F0F00E8314DF6E8C9018EC06F098
:101660008C8018EC06F083380F0B0F0BDF128C9078
:101670008C947F0EDF14E552E552E7CFD9FF1200BC
:101680008C848C9218EC06F08C8018EC06F083AEFB
:1016900009D08C9018EC06F08C8018EC06F08C9039
:1016A0008C94010C8C9018EC06F08C8018EC06F0F1
:0616B0008C908C94000CEC
:0A16B6004B6579205072657373656F
:1016C000643A202573004400230030002A004300C0
:1016D0003900380037004200360035003400410040
:0616E0003300320031006E
:0A16E600FF0EE3501C6EEF0E01D062
:1016F000F30EE76EE72E7AEF0BF00C0E1B6EE76A27
:10170000E72E80EF0BF01B2E7FEF0BF01C2E78EFF7
:041710000BF01200C8
:0C171400F36AF46AFF0EE124E96EFF0E98
:10172000E220EA6EED6607D02F0EEF6404D03A0E89
:08173000EF6001D0F32A120062
:08173800FF0EE3501C6E480E89
:1017400001D04C0EE76EE72EFED7E76AE72EFED7F4
:081750001C2EF7D70000120067
:08175800000EF36E00EE00F03C
:10176000060E01D81200EA6002D0EE6AFCD7F350F0
:08177000E9601200EE6AFCD7EB
:0817780015EE00F025EE00F073
:10178000F86A0A9CC9EC08F0EDEC0BF003EC08F0E9
:04179000FBD7120071
:0C179400FF0EE350ACBA04D0AF6AAB8E7D
:1017A000AC8A949CACA2FED7AD6EF36EF46A1200C4
:1017B000FF0EE350E84E1200000000D000D000D031
:0617C000E82EFAD712002A
:0A17C600303132333435363738390C
:0717D00061626364656600BD
:0217D8001200FD
:0217DA001200FB
:020000040030CA
:0100010022DC
:010003000EEE
:010006008178
:00000001FF
